:1000000000308A0066280000210B2328A301A201EA
:100010002308013C031C2228031D122822082B3C24
:10002000031C2228071464002930F700F70B162858
:10003000071064002930F700F70B1C28A20A0319E7
:10004000A30A08283C28A301A201A308031D3C28F9
:100050002208633C031C3C28071464002930F70085
:10006000F70B3028071064002930F700F70B36280B
:10007000A20A0319A30A2528A301A201A308031DAC
:1000800055282208633C031C5528071064002930BA
:10009000F700F70B4928071064002930F700F70B29
:1000A0004F28A20A0319A30A3E2864000800223040
:1000B000840083130008031965285130F700F70BFB
:1000C0005F2862286400800B5D2808008401831388
:1000D0001F308305413083168F000F08031709086E
:1000E000C039890003131F129F12003003178800C4
:1000F000831287018801890183160908C0398900A4
:1001000003131F129F12003003178800831203137A
:100110001F139F1383169F1383121F149412013011
:1001200094000030831694000108C7390838810014
:1001300009308312031785000F30F7000313810184
:100140008130840083130008F03907388000640090
:100150000008F739F719F03977048000640090013E
:100160000030F8009200003083169200831297014D
:1001700083169B019C0101309D00831203178701A8
:10018000880189014130831603138F000F08003066
:1001900087008312A10104200130A1000420A101E5
:1001A0000420A10104200430A100C830A20057207F
:1001B000A10BD528A10104200430A100C830A20061
:1001C0005720A10BDE280130A10004200830A10037
:1001D000C830A2005720A10BE828A1010420A101EA
:1001E00004200130A1000420A10104200430A1005A
:1001F000C830A2005720A10BF828A1010420A101BA
:1002000004200430A100C830A2005720A10B03290C
:100210000130A1000420A10104200130A10004202C
:100220000C30A100FA30A2005720A10B1229CA28D5
:02023000630069
:04400E00CC23FF3E82
:00000001FF
;PIC16F887
;CRC=1735  CREATED="11-Jun-16 16:11"
