:1000000000308A002A28000027308400831300086B
:1000100003191B280630F800BF30F7006400F70B07
:100020000E28F80B0C287A30F700F70B1528182843
:100030006400800B0A28080064008C1E1C28180825
:10004000A0001A08F800A01C2728181218168A11F8
:100050000A12C528840183131F30830583160317F2
:10006000871508300313990002309A00A6309800D3
:10007000903083129800831603170908C03989004D
:1000800003131F129F120030031788008312870189
:10009000880189010313A001FF30A1000930031773
:1000A00085000F30F7000313810181308400831332
:1000B0000008F0390738800064000008F739F719A4
:1000C000F03977048000831603170908C0398900C6
:1000D00003131F129F1200300317880083120313AB
:1000E0001F139F1383169F1383121F149412A112C0
:1000F00021088316870083122116210883168700A2
:100100008312A11121088316870001308312940005
:100110000030831694000108C73908388100831223
:1001200090012115210883168700831297018316F9
:100130009B019C0101309D000030F8008312920069
:10014000003083169200831203178701880189010A
:1001500083160313970188128312881283160812DC
:10016000831208160230A600FA30A7000420A60B5E
:10017000B4288316081283120812A501A401A30152
:10018000A20164008C1ED0281C282110210883168F
:100190008700013083128706A501A401A301A201F3
:1001A0000130A2070318A30A0319A40A0319A50A18
:1001B000A508031DED282408C13C03180529FF3AB2
:1001C000031DED282308C93C03180529FF3A031D28
:1001D000ED282208CC3C03180529831688128312C7
:1001E00088160230A600FA30A7000420A60BF328D8
:1001F00083168812831288121430A600FA30A700E2
:0E0200000420A60BFE288A010028C1286300F6
:04400E00EA23FF3E64
:00000001FF
;PIC16F887
;CRC=E361  CREATED="15-Mar-17 09:57"
