:1000000000308A007C280000FF00030E8301A1005D
:100010000A08A0008A010408A2007708A300780853
:10002000A4007908A5007A08A600831383128C30F7
:100030008400001C1D280C1832288B1E21280B1947
:100040003528220884002308F7002408F800250832
:10005000F9002608FA0020088A00210E8300FF0E0E
:100060007F0E09008A110A124C288A110A1275287B
:10007000303084008313000803194B280630F80041
:10008000F701F70B4128F80B40287B30F700F70BFE
:100090004728800B3E2808002C08033C03186F28D3
:1000A00083168510831285140430AF00FA30B00037
:1000B0003820AF0B562883168510831285108316BF
:1000C0000510831205140A30B0003820831605107D
:1000D000831205100130A8008101AC0171280130A4
:1000E000AC070C108A110A1221288F018E01AC0175
:1000F0000B118A110A122128840183131F308305F2
:10010000A801A901AA01AB01AC01831603170908D4
:10011000C039890003131F129F1200300317880093
:100120008312870188018901FF300313AD0001307C
:1001300083169500811303170908C039890003133A
:100140001F129F12003003178800831203131F1021
:100150009412AD122D088316870083122D162D08D8
:10016000831687008312AD112D0883168700013096
:10017000831294000030831694000108C739283890
:1001800081003F30831290000030F8009200003070
:100190008316920083120317870188018901831651
:1001A000031397010C1483128B16C0308B04831633
:1001B000051083120514A7018B1BA7178B130A3098
:1001C000B0003820A71B8B1783160510831205106B
:1001D0000130A8008316051183120515A7018B1B9A
:1001E000A7178B130A30B0003820A71B8B17831674
:1001F0000511831205110130A9008316081283121C
:100200000816A7018B1BA7178B130A30B0003820E4
:10021000A71B8B1783160812831208120130AA003D
:100220008316081383120817A7018B1BA7178B13BC
:100230000A30B0003820A71B8B17831608138312CF
:1002400008130130AB00831606148312061C3F29E5
:10025000A80803193E298316851083128514A70167
:100260008B1BA7178B130A30B0003820A71B8B17E6
:100270008316851083128510A8013E295529A808E8
:10028000031D55298316051083120514A7018B1B26
:10029000A7178B130A30B0003820A71B8B178316C3
:1002A0000510831205100130A800831686148312EE
:1002B000861C7129A90803197029831685118312D8
:1002C0008515A7018B1BA7178B130A30B0003820A8
:1002D000A71B8B178316851183128511A90170291D
:1002E0008729A908031D872983160511831205157F
:1002F000A7018B1BA7178B130A30B0003820A71B50
:100300008B1783160511831205110130A90083167E
:1003100006158312061DA329AA080319A22983160C
:10032000881283128816A7018B1BA7178B130A301C
:10033000B0003820A71B8B178316881283128812EF
:10034000AA01A229B929AA08031DB92983160812EE
:1003500083120816A7018B1BA7178B130A30B00056
:100360003820A71B8B17831608128312081201303E
:10037000AA00831686158312861DD529AB0803199A
:10038000D4298316881383128817A7018B1BA717FC
:100390008B130A30B0003820A71B8B1783168813E5
:1003A00083128813AB01D429EB29AB08031DEB2979
:1003B0008316081383120817A7018B1BA7178B132B
:1003C0000A30B0003820A71B8B178316081383123E
:0A03D00008130130AB00232963007D
:04400E00F22CFF3F52
:00000001FF
;PIC16F887
;CRC=2CE2  CREATED="30-11-15 19:16"
